:020000040800F2
:1000000000C000203D2E00084D0C00084F0C0008D9
:10001000510C0008530C0008550C000800000000AB
:10002000000000000000000000000000570C000865
:10003000590C0008000000005B0C00085D0C000873
:10004000852E0008852E0008852E0008852E0008C4
:10005000852E0008852E0008852E0008852E0008B4
:10006000852E0008852E0008852E0008852E0008A4
:10007000852E0008852E0008852E0008852E000894
:10008000852E0008852E0008852E0008852E000884
:10009000852E0008852E0008852E0008852E000874
:1000A000650C0008750C0008850C0008950C00080C
:1000B000A50C0008B50C0008C50C0008852E00082A
:1000C000852E0008852E0008852E0008852E000844
:1000D000852E0008852E0008852E0008852E000834
:1000E000852E0008852E0008852E0008852E000824
:1000F000852E0008852E0008852E0008852E000814
:10010000852E0008852E0008D50C0008852E0008D5
:10011000E50C0008F50C0008852E0008852E000867
:10012000852E0008852E0008050D0008852E000884
:1001300000000000000000000000000000000000BF
:1001400000000000000000000000000000000000AF
:10015000000000000000000000000000000000009F
:10016000000000000000000000000000000000008F
:10017000000000000000000000000000000000007F
:10018000000000000000000000000000000000006F
:10019000000000000000000000000000000000005F
:1001A000000000000000000000000000000000004F
:1001B000000000000000000000000000000000003F
:1001C000000000000000000000000000000000002F
:1001D000000000000000000000000000000000001F
:0401E0005FF8E0F1F3
:1001E40010B5054C237833B9044B13B10448AFF36D
:1001F40000800123237010BD0C00002000000000CB
:10020400E02E000808B5034B1BB103490348AFF3C4
:10021400008008BD0000000010000020E02E00084F
:1002240070B505460C463E4B03F8301099B9431E91
:10023400032B10D8DFE803F002121E2C394E0122E2
:100244004FF48061304601F053FF00224FF4006107
:10025400304601F04DFF012C26D070BD314E0122F5
:100264000221304601F044FF00220421304601F00F
:100274003FFFF0E72B4E01224FF48041304601F05E
:1002840037FF00224FF40041304601F031FFE2E72E
:10029400254E01224021304601F02AFF0022802110
:1002A400304601F025FFD6E7013D032DD5D8DFE820
:1002B40005F002101C2A1B4C00224FF480612046DA
:1002C40001F016FF01224FF40061204601F010FFF7
:1002D400C3E7144C00220221204601F009FF012249
:1002E4000421204601F004FFB7E70E4C00224FF42E
:1002F4008041204601F0FCFE01224FF400412046DB
:1003040001F0F6FEA9E7084C00224021204601F046
:10031400EFFE01228021204601F0EAFE9DE700BFA6
:1003240028000020000C01400010014001604260E0
:100334008360704708B50268044B9A4200D008BD38
:1003440001210846FFF76CFFF9E700BF002C0140CC
:10035400704772B6FEE700B591B02822002106A8C6
:1003640002F0B4FD002301930293039304930593D5
:10037400012206924FF4803307930A9202220D92CF
:100384000E934FF4E0130F9306A801F075FA80B9A9
:100394000F23019302210291002303934FF48062FF
:1003A4000492059301A801F0A7FC20B911B05DF8EF
:1003B40004FBFFF7CEFFFFF7CCFF000008B501F008
:1003C40021FAFFF7C8FF00F077F800F0CFF800F04B
:1003D400D9FA00F0E5F800F015F900F045F900F05D
:1003E40075F900F05FFB00F077FB254C23686FF094
:1003F40001021A61204600F06FFD0021204601F041
:1004040091F80421204601F08DF80821204601F0DE
:1004140089F80C21204601F085F83C21194801F0A7
:10042400FBF83C21184801F0F7F83C21174801F08B
:10043400F3F83C21164801F0EFF8164B1A781649E8
:10044400164802F0DBFC164B1A781649164802F0DF
:100454007CFC00234FF07C52144915480068FFF7D8
:1004640065FF144C01224FF48041204601F040FE08
:1004740000224FF40041204601F03AFEF1E700BFAC
:100484006C000020B4000020FC0000204401002087
:100494008C010020000000205400002018020020DD
:1004A40001000020600000205C0200200000A04148
:1004B40050000020000C01402DE9F04188B00024D8
:1004C4000494059406940794254B9A6942F02002FB
:1004D4009A619A6902F020020092009A9A6942F0A5
:1004E40004029A619A6902F004020192019A9A69DB
:1004F40042F008029A619A6902F008020292029A92
:100504009A6942F010029A619B6903F01003039305
:10051400039BDFF8508022464CF60641404601F02A
:10052400E7FD114D2246C021284601F0E1FD4CF6BD
:10053400064304930127059706940226079604A907
:10054400404601F0B5FCC023049305970694079632
:1005540004A9284601F0ACFC08B0BDE8F08100BF56
:1005640000100240000C01400010014000B583B0AF
:100574000A4B5A6942F002025A615B6903F00203B2
:100584000193019B002211463A2002F0B1F83A206F
:1005940002F0E6F803B05DF804FB00BF001002406F
:1005A40000B58DB02422002103A802F08FFC0023A3
:1005B4000193029312484FF08042026043608360CB
:1005C4004FF6FF72C2600361836103230393012327
:1005D4000593099303A900F021FE50B90023019368
:1005E400029301A9064801F07DF828B90DB05DF821
:1005F40004FBFFF7AEFEF1E7FFF7ABFEF6E700BF43
:10060400B400002000B58DB02422002103A802F01C
:100614005DFC0023019302931148124A0260436077
:1006240083604FF6FF72C260036183610323039307
:1006340001230593099303A900F0F0FD50B90023A9
:100644000193029301A9064801F04CF828B90DB0B2
:100654005DF804FBFFF77DFEF1E7FFF77AFEF6E7AE
:10066400FC0000200004004000B58DB024220021CD
:1006740003A802F02BFC0023019302931148124AB1
:100684000260436083604FF6FF72C260036183615E
:100694000323039301230593099303A900F0BEFDEB
:1006A40050B900230193029301A9064801F01AF8F6
:1006B40028B90DB05DF804FBFFF74BFEF1E7FFF737
:1006C40048FEF6E7440100200008004000B58DB064
:1006D4002422002103A802F0F9FB002301930293D2
:1006E4001148124A0260436083604FF6FF72C26091
:1006F400036183610323039301230593099303A9EE
:1007040000F08CFD50B900230193029301A906481F
:1007140000F0E8FF28B90DB05DF804FBFFF719FEFF
:10072400F1E7FFF716FEF6E78C010020000C00400D
:1007340002681A4B9A4200D0704700B583B003F5A3
:1007440064439A6942F400629A619B6903F400630A
:100754000193019B00221146182001F0C9FF1820C3
:1007640001F0FEFF00221146192001F0C1FF1920FB
:1007740001F0F6FF002211461A2001F0B9FF1A20F9
:1007840001F0EEFF002211461B2001F0B1FF1B20F7
:1007940001F0E6FF03B05DF804FB00BF002C01404C
:1007A40010B58EB000230A930B930C930D9303683A
:1007B400B3F1804F0BD0584A934247D0574A9342E3
:1007C40066D0574A934200F085800EB010BD03F501
:1007D4000433DA6942F00102DA61DA6902F00102F3
:1007E4000192019A9A6942F004029A619A6902F0AC
:1007F40004020292029A9A6942F008029A619B6981
:1008040003F008030393039B4FF400430A930AA9DC
:10081400444801F04DFB08230A9300240B940C94E4
:100824000AA9414801F044FB404A536823F4407349
:1008340043F0E06343F480735360224621461C2056
:1008440001F056FF1C2001F08BFFBEE7384BDA693C
:1008540042F00202DA61DA6902F002020492049AB6
:100864009A6942F004029A619B6903F004030593B8
:10087400059BC0230A930AA92A4801F019FB002208
:1008840011461D2001F034FF1D2001F069FF9CE793
:10089400274BDA6942F00402DA61DA6902F00402F1
:1008A4000692069A9A6942F008029A619B6903F0DB
:1008B40008030793079BC0230A930AA91A4801F067
:1008C400F7FA002211461E2001F012FF1E2001F04B
:1008D40047FF7AE7164BDA6942F00802DA61DA690F
:1008E40002F008020892089A9A6942F004029A6196
:1008F4009B6903F004030993099B03230A930AA940
:10090400084801F0D5FA00221146322001F0F0FE29
:10091400322001F025FF58E70004004000080040A1
:10092400000C004000080140000C014000000140A0
:100934000010024000B587B0002302930393049390
:10094400059302680D4B9A4202D007B05DF804FB90
:1009540003F564439A6942F004029A619B6903F0C7
:1009640004030193019B4FF47063029302230393E6
:10097400059302A9024801F09BFAE6E7002C014026
:100984000008014010B596B00024129413941494F6
:1009940015941094119409940A940B940C940D9446
:1009A4000E940F942022214601A802F08FFA3B48AE
:1009B4003B4B036047234360846040F2E733C360EA
:1009C40004614461846100F0D1FB00284BD14FF4F1
:1009D4008053129312A9314800F028FD002845D114
:1009E4002E4800F0EFFB002843D10023109311930D
:1009F40010A92A4800F076FE00283DD1602309930F
:100A040000220A920B920C920D920E920F9209A957
:100A1400224800F097FC002831D1042209A91F487C
:100A240000F090FC70BB082209A91C4800F08AFC65
:100A340058BB0C2209A9194800F084FC40BB0023D0
:100A4400019302930393049305934FF40052069287
:100A5400089301A9114800F083FEE0B90F48FFF79D
:100A640069FF16B010BDFFF774FCB0E7FFF771FC27
:100A7400B6E7FFF76EFCB8E7FFF76BFCBEE7FFF7DE
:100A840068FCCAE7FFF765FCCDE7FFF762FCD0E737
:100A9400FFF75FFCD3E7FFF75CFCDFE76C000020A7
:100AA400002C014008B50A480A4B03604FF4E133B7
:100AB400436000238360C36003610C22426183614D
:100AC400C36101F00BFF00B908BDFFF742FCFBE76F
:100AD40018020020004C004008B50A480A4B036085
:100AE4004FF4E133436000238360C36003610C224D
:100AF40042618361C36101F0F1FE00B908BDFFF7F3
:100B040028FCFBE75C0200200050004070B58AB06E
:100B1400002306930793089309930368434A934277
:100B240004D0434A934248D00AB070BD0446414BB6
:100B3400DA6942F40022DA61DA6902F400220192ED
:100B4400019A9A6942F010029A619B6903F01003BA
:100B54000293029B4FF480630693022307930323BB
:100B64000993354E06A9304601F0A2F94FF400630B
:100B7400069300250795089506A9304601F098F9D3
:100B84002E482F4B0360456085608023C360056158
:100B940045618561C56101F0C7FA58B9274BA36364
:100BA4005C6200221146342001F0A2FD342001F0E1
:100BB400D7FDB9E7FFF7CDFBF0E71E4BDA6942F446
:100BC4008012DA61DA6902F480120392039A9A6954
:100BD40042F010029A619A6902F010020492049A97
:100BE4009A6942F020029A619B6903F020030593FD
:100BF400059B4FF480530693022307930323099321
:100C040006A90D4801F054F904230693002407941F
:100C1400089406A90B4801F04BF9224621463520D9
:100C240001F066FD352001F09BFD7DE7004C00409E
:100C3400005000400010024000100140D401002088
:100C44003004024000140140FEE7FEE7FEE7FEE741
:100C5400FEE770477047704708B500F0E5FD08BD32
:100C640008B5024800F079F908BD00BF6C00002007
:100C740008B5024800F071F908BD00BF6C000020FF
:100C840008B5024800F069F908BD00BF6C000020F7
:100C940008B5024800F061F908BD00BF6C000020EF
:100CA40008B5024800F059F908BD00BFB40000209F
:100CB40008B5024800F051F908BD00BFFC0000204F
:100CC40008B5024800F049F908BD00BF44010020FE
:100CD40008B5024800F041F908BD00BF8C010020AE
:100CE40008B5024801F0D8FE08BD00BF1802002074
:100CF40008B5024801F0D0FE08BD00BF5C02002028
:100D040008B5024801F06CFB08BD00BFD401002007
:100D140082B00E4B9A6942F001029A619A6902F01C
:100D240001020092009ADA6942F08052DA61DB69CA
:100D340003F080530193019B054A536823F0E06359
:100D440043F00073536002B0704700BF00100240CC
:100D54000000014030B4036A23F001030362036A14
:100D64004268846924F073040D682C4323F0020C58
:100D74008B6843EA0C03104DA84203D005F50065C7
:100D8400A84205D123F00803CD682B4323F00403C4
:100D9400094DA84203D005F50065A84205D122F407
:100DA40040724D692A438D692A43426084614A68CE
:100DB4004263036230BC7047002C014030B4036AC4
:100DC40023F480730362036A4268C46924F0730CD9
:100DD4000C6844EA0C0523F400738C6843EA04238A
:100DE400114CA04203D004F50064A04206D123F4C0
:100DF4000063CC6843EA042323F480630A4CA042D2
:100E040003D004F50064A04207D122F440524C6997
:100E140042EA04128C6942EA04124260C5614A68DB
:100E2400C263036230BC7047002C014030B4036AD3
:100E340023F480530362036A4468C26922F4E642DD
:100E44000D6842EA052223F400538D6843EA053312
:100E5400094DA84203D005F50065A84204D124F445
:100E640080444D6944EA85144460C2614A6802645E
:100E7400036230BC704700BF002C014010B4036A09
:100E8400046A24F001040462846924F0F00C4CEA3E
:100E9400021223F00A030B438261036210BC704701
:100EA40010B4046A24F0100404628469036A24F40C
:100EB400704C4CEA023223F0A00343EA011382612E
:100EC400036210BC7047836823F070030B4343F044
:100ED400070383607047000090F83D30DBB2012BBC
:100EE4002FD1022380F83D300268D36843F0010318
:100EF400D3600368154A934218D002F50062934206
:100F040014D0B3F1804F11D0A2F5983293420DD092
:100F140002F58062934209D002F58062934205D0C3
:100F24001A6842F001021A60002070479A6802F0C1
:100F34000702062A07D01A6842F001021A6000204C
:100F44007047012070470020704700BF002C01400B
:100F54007047704770477047704710B50446036880
:100F64001A6912F0020F11D0DA6812F0020F0DD0D4
:100F74006FF002021A610123037703689B6913F07F
:100F8400030F70D0FFF7E6FF0023237723681A6965
:100F940012F0040F12D0DA6812F0040F0ED06FF0C2
:100FA40004021A610223237723689B6913F4407FA8
:100FB4005FD02046FFF7CEFF0023237723681A690A
:100FC40012F0080F12D0DA6812F0080F0ED06FF08A
:100FD40008021A61042323772368DB6913F0030FE3
:100FE4004ED02046FFF7B6FF0023237723681A6903
:100FF40012F0100F12D0DA6812F0100F0ED06FF04A
:1010040010021A61082323772368DB6913F4407FF5
:101014003DD02046FFF79EFF0023237723681A69FB
:1010240012F0010F03D0DA6812F0010F36D12368F1
:101034001A6912F0800F03D0DA6812F0800F34D1ED
:1010440023681A6912F0400F03D0DA6812F0400FD7
:1010540032D123681A6912F0200F03D0DA6812F033
:10106400200F30D110BDFFF774FF2046FFF773FF48
:101074008AE72046FFF76DFF2046FFF76CFF9BE7EA
:101084002046FFF766FF2046FFF765FFACE72046E2
:10109400FFF75FFF2046FFF75EFFBDE76FF0010239
:1010A4001A612046FFF746F9C1E76FF080021A6122
:1010B400204600F07FFBC3E76FF040021A61204630
:1010C400FFF74AFFC5E76FF020021A61204600F0DF
:1010D40070FBC7E70368244A904212D002F500620D
:1010E40090420ED0B0F1804F0BD0A2F598329042CE
:1010F40007D002F58062904203D002F580629042EC
:1011040003D123F070034A681343174A904212D064
:1011140002F5006290420ED0B0F1804F0BD0A2F5E0
:101124009832904207D002F58062904203D002F5D3
:101134008062904203D123F44073CA68134323F0BE
:1011440080034A69134303608B68C3620B6883623C
:10115400054B984203D003F50063984201D10B6913
:101164000363012343617047002C014040B310B571
:10117400044690F83D30F3B1022384F83D30214613
:1011840051F8040BFFF7A6FF012384F8463084F8D6
:101194003E3084F83F3084F8403084F8413084F89D
:1011A400423084F8433084F8443084F8453084F87D
:1011B4003D30002010BD80F83C30FFF7B9FADBE782
:1011C4000120704740B310B5044690F83D30F3B1A8
:1011D400022384F83D30214651F8040BFFF77AFFCF
:1011E400012384F8463084F83E3084F83F3084F894
:1011F400403084F8413084F8423084F8433084F835
:10120400443084F8453084F83D30002010BD80F827
:101214003C30FFF79DFEDBE701207047002857D0E4
:1012240070B50D46044690F83D30002B4BD0022398
:1012340084F83D302268936823F4804323F0070345
:101244009360214651F8040BFFF744FF21688A6834
:101254008B690E6A2868104323F4407C2CF0030C3D
:10126400AA68AB6942EA032343EA0C0323F47C43F0
:1012740023F0FC03EA69D5F80CC04CEA022C4CEAD2
:10128400030C2A6A13032A6943EA021343EA0C0390
:1012940026F022066A686D6942EA051232438860C4
:1012A40021688B6123681A62012384F8463084F82C
:1012B4003E3084F83F3084F8423084F8433084F878
:1012C4003D30002070BD80F83C30FFF769FAAEE78E
:1012D4000120704730B4036A23F010030362036AE9
:1012E4004468826922F4E6420D6842EA052223F04A
:1012F40020038D6843EA0513114DA84203D005F578
:101304000065A84206D123F08003CD6843EA0513A3
:1013140023F040030A4DA84203D005F50065A84216
:1013240007D124F440644D6944EA85048D6944EA94
:101334008504446082614A688263036230BC7047FA
:10134400002C014038B590F83C30012B60D00446A5
:101354000D46012380F83C300C2A1AD8DFE802F04D
:10136400071919191D191919311919194400006897
:10137400FFF7F0FC2268936943F008039361226845
:10138400936923F0040393612268936929690B43E9
:101394009361002084F83C0038BD0068FFF79AFF91
:1013A4002268936943F4006393612268936923F488
:1013B4008063936122689369296943EA01239361F5
:1013C400E7E70068FFF7FAFC2268D36943F00803F3
:1013D400D3612268D36923F00403D3612268D369FB
:1013E40029690B43D361D4E70068FFF71FFD226826
:1013F400D36943F40063D3612268D36923F480631F
:10140400D3612268D369296943EA0123D361C0E720
:101414000220C1E710B4846824F47F4C42EA03221A
:101424000A4342EA0C02826010BC704790F83C30D8
:10143400012B66D010B50446012380F83C3002230A
:1014440080F83D300268936823F47F4323F07703E8
:1014540093600B68602B40D022D8402B47D00BD927
:10146400502B0ED1CA6849680068FFF707FD502168
:101474002068FFF728FD04E0202B0CD008D9302B7E
:1014840009D0012384F83D30002084F83C0010BDCD
:101494000BB1102BF5D119462068FFF714FDF0E7C6
:1014A400702B0ED0B3F5005FEBD1CB684A68896826
:1014B4000068FFF7AFFF2268936843F480439360AA
:1014C400DFE7CB684A6889680068FFF7A3FF2268F2
:1014D400936843F077039360D3E7CA684968006868
:1014E400FFF7DEFC60212068FFF7EDFCC9E7CA685E
:1014F40049680068FFF7C2FC40212068FFF7E3FC5D
:10150400BFE70220704701F01F01012303FA01FC29
:10151400036A23EA0C030362036A02FA01F10B4330
:101524000362704710B50446084600293AD194F87E
:101534003E30DBB2013B18BF0123002B66D10028EB
:1015440049D1022384F83E30012201462068FFF786
:10155400DAFF23682F4A934203D002F500629342D4
:1015640003D15A6C42F400425A642368294A9342D4
:1015740041D002F5006293423DD0B3F1804F3AD09E
:10158400A2F59832934236D002F58062934232D06B
:1015940002F5806293422ED01A6842F001021A606A
:1015A400002032E0042908D008290DD094F84130F5
:1015B400DBB2013B18BF0123BFE794F83F30DBB235
:1015C400013B18BF0123B8E794F84030DBB2013B7C
:1015D40018BF0123B1E7042805D0082807D0022347
:1015E40084F84130B0E7022384F83F30ACE70223AB
:1015F40084F84030A8E79A6802F00702062A07D068
:101604001A6842F001021A60002010BD0120FCE7B4
:101614000020FAE7002C014038B5044690F83E005B
:10162400C0B294F83F3094F84220D2B294F843C048
:101634000D46B1B9012849D1012A48D1022384F8C1
:101644003E3084F842307DB3042D39D0012200218C
:101654002068FFF758FF012204212068FFF753FF99
:1016640027E0DBB25FFA8CFC042912D0012833D1C5
:10167400012B2CD1012A31D1BCF1010F30D102232D
:1016840084F83E3084F83F3084F8423084F84330A4
:10169400D9E7012B1CD1BCF1010F1BD1022384F823
:1016A4003F3084F84330CEE7012200212068FFF761
:1016B4002AFF2268136843F001031360002006E048
:1016C400012204212068FFF71EFFF2E7012038BD44
:1016D4000120FCE71846FAE70120F8E71846F6E788
:1016E4001046F4E790F83C30012B34D010B40123B9
:1016F40080F83C30022380F83D3003685A689C68C7
:1017040022F0700C0A6842EA0C025A600368134A19
:10171400934212D002F5006293420ED0B3F1804F8F
:101724000BD0A2F59832934207D002F5806293421F
:1017340003D002F58062934204D124F080044A6805
:1017440014439C60012380F83D30002380F83C3032
:10175400184610BC70470220704700BF002C01409F
:1017640090F83C30012B22D0012380F83C30CB6828
:1017740023F440738A68134323F480634A68134351
:1017840023F400630A68134323F480530A69134360
:1017940023F400534A69134323F48043CA6913436F
:1017A40002685364002380F83C30184670470220D6
:1017B400704770477047000010B504460E4B187808
:1017C4004FF47A73B3FBF0F30C4A1068B0FBF3F0F8
:1017D40000F0D4FF68B90F2C01D901200AE00022DF
:1017E40021464FF0FF3000F083FF054B1C600020C2
:1017F40000E0012010BD00BF02000020080000200E
:101804000400002008B5074A136843F0100313606E
:10181400032000F05BFF0F20FFF7CEFFFFF778FAFD
:10182400002008BD00200240034A1168034B1B78C6
:101834000B441360704700BFA00200200200002088
:10184400014B1868704700BFA002002082B0084B0B
:101854001B68084AA2FB03235B0A00FB03F3019302
:1018640000BF019B5A1E0192002BF9D102B07047B0
:1018740008000020D34D6210002800F0F18170B5FB
:1018840082B00446036813F0010F2CD0994B5B68B7
:1018940003F00C03042B1DD0964B5B6803F00C0380
:1018A400082B12D06368B3F5803F41D0002B55D18B
:1018B40003F1804303F504331A6822F480321A607A
:1018C4001A6822F480221A6037E08A4B5B6813F4AA
:1018D400803FE7D0874B1B6813F4003F03D0636855
:1018E400002B00F0BF81236813F0020F75D0814BE9
:1018F4005B6813F00C0F5FD07E4B5B6803F00C0346
:10190400082B54D02369002B00F08A807A4B0122E3
:101914001A60FFF795FF0546764B1B6813F0020F1C
:1019240075D1FFF78DFF401B0228F5D903209EE1F6
:10193400704A136843F480331360636843B3FFF75A
:101944007FFF05466B4B1B6813F4003FCBD1FFF7B9
:1019540077FF401B6428F5D9032088E1B3F5A02F55
:1019640009D0644B1A6822F480321A601A6822F48F
:1019740080221A60E1E703F18043A3F53C331A683F
:1019840042F480221A601A6842F480321A60D4E762
:10199400FFF756FF0546574B1B6813F4003FA2D0D0
:1019A400FFF74EFF401B6428F5D903205FE1514B3C
:1019B4005B6813F4803FA5D14E4B1B6813F0020FF4
:1019C40003D02369012B40F04F814A4A136823F066
:1019D400F803616943EAC1031360236813F0080F35
:1019E40033D0A369002B5CD0434B0122C3F880247D
:1019F400FFF726FF05463F4B5B6A13F0020F21D128
:101A0400FFF71EFF401B0228F5D903202FE1394AB6
:101A1400136823F0F803616943EAC1031360DCE748
:101A2400354B00221A60FFF70BFF0546314B1B684C
:101A340013F0020FD1D0FFF703FF401B0228F5D9A2
:101A4400032014E10120FFF701FF236813F0040FC2
:101A540000F09680274BDB6913F0805F34D1254B6F
:101A6400DA6942F08052DA61DB6903F08053019352
:101A7400019B0125214B1B6813F4807F26D0E3686A
:101A8400012B3DD0002B53D103F1804303F50433E4
:101A94001A6A22F001021A621A6A22F004021A6215
:101AA40033E0154B0022C3F88024FFF7C9FE054636
:101AB400104B5B6A13F0020FC7D0FFF7C1FE401B47
:101AC4000228F5D90320D2E00025D3E70B4A136896
:101AD40043F480731360FFF7B3FE0646074B1B689D
:101AE40013F4807FCBD1FFF7ABFE801B6428F5D9BC
:101AF4000320BCE00010024000004242007000409D
:101B04005F4A136A43F001031362E36833B3FFF7D8
:101B140097FE06465A4B1B6A13F0020F2FD1FFF7AC
:101B24008FFE801B41F288339842F3D903209EE054
:101B3400052B09D0524B1A6A22F001021A621A6A62
:101B440022F004021A62E0E74D4B1A6A42F00402E2
:101B54001A621A6A42F001021A62D6E7FFF770FEAF
:101B64000646474B1B6A13F0020F08D0FFF768FEC6
:101B7400801B41F288339842F3D9032077E0E5B91A
:101B8400E369002B72D03E4A526802F00C02082A24
:101B940056D0022B17D03B4B00221A66FFF750FE9B
:101BA4000446374B1B6813F0007F47D0FFF748FE0D
:101BB400001B0228F5D9032059E0314AD36923F0E8
:101BC4008053D361DCE72F4B00221A66FFF738FEFF
:101BD40005462B4B1B6813F0007F06D0FFF730FE41
:101BE400401B0228F5D9032041E0236AB3F5803F66
:101BF4001AD023494B6823F47413226A606A02439F
:101C040013434B601F4B01221A66FFF719FE04466B
:101C14001B4B1B6813F0007F0ED1FFF711FE001B56
:101C24000228F5D9032022E0154A536823F400332F
:101C3400A1680B435360DCE7002018E0002016E0A5
:101C4400012B16D00E4B5B6803F48031226A91425B
:101C540011D103F47013626A93420ED1002006E09E
:101C640001207047012002E0012000E0002002B0C2
:101C740070BD0120FBE70120F9E70120F7E700BF71
:101C8400001002400000424286B0174B0FCB0DF10A
:101C9400180C0CE90F0040F20123ADF80430134B8B
:101CA4005B6803F00C02082A02D0114806B07047A2
:101CB400C3F3834218326A4412F8100C13F4803FC1
:101CC4000DD00A4B5B68C3F3404318336B4413F8DD
:101CD400143C074A02FB00F0B0FBF3F0E6E7054BC7
:101CE40003FB00F0E2E700BFF82E000800100240FA
:101CF40000127A0000093D00002800F0A08070B5B1
:101D04000D460446524B1B6803F007038B420BD26B
:101D14004F4A136823F007030B431360136803F05F
:101D240007038B4240F08D80236813F0020F17D015
:101D340013F0040F04D0474A536843F4E06353603C
:101D4400236813F0080F04D0424A536843F46053E5
:101D54005360404A536823F0F003A1680B43536077
:101D6400236813F0010F31D06368012B20D0022BBC
:101D740025D0384A126812F0020F64D035494A68F7
:101D840022F0030213434B60FFF75AFD0646314B22
:101D94005B6803F00C036268B3EB820F16D0FFF7A5
:101DA4004FFD801B41F288339842F0D9032045E06F
:101DB400284A126812F4003FE0D101203EE0254A8F
:101DC400126812F0007FD9D1012037E0204B1B6844
:101DD40003F00703AB420AD91D4A136823F0070333
:101DE4002B431360136803F00703AB422DD1236820
:101DF40013F0040F06D0174A536823F4E063E16834
:101E04000B435360236813F0080F07D0114A53683B
:101E140023F46053216943EAC1035360FFF734FF9D
:101E24000C4B5B68C3F303130B4AD35CD8400B4BD6
:101E340018600B4B1868FFF7BFFC002070BD012031
:101E440070470120FAE70120F8E70120F6E700BF18
:101E540000200240001002400C2F0008080000205F
:101E640004000020014B1868704700BF08000020E0
:101E740008B5FFF7F7FF044B5B68C3F30223034A7B
:101E8400D35CD84008BD00BF001002401C2F0008DE
:101E940008B5FFF7E7FF044B5B68C3F3C223034AAB
:101EA400D35CD84008BD00BF001002401C2F0008BE
:101EB40070B582B00024A446B0E0874DAA4210D089
:101EC40007D9864DAA420CD005F58035AA4208D020
:101ED40013E0A5F58015AA4203D005F57025AA42A2
:101EE40007D18A68002A62D0012A5BD043610824A2
:101EF40003E0A5F58015AA42F3D0BEF1FF0F58D830
:101F04000646BEF1FF0F56D84FEA8C0233680F2500
:101F1400954023EA050304FA02F2134333604B6845
:101F240013F0805F78D06E4B9A6942F001029A6197
:101F34009B6903F001030193019B4FEA9C02951CEA
:101F4400684B53F825600CF003039D000F23AB404E
:101F540026EA0306644B984233D003F58063984223
:101F640000F0988003F58063984200F0958003F5B3
:101F74008063984200F0928003F58063984200F0F9
:101F84008F8003F58063984219D006231AE0CC6849
:101F9400B3E7CC680434B0E7CC680834ADE7CC6868
:101FA4000C34AAE703610824A7E70024A5E7042466
:101FB400A3E7061DA5E7ACF108029200A6E70523F6
:101FC40000E00023AB4033430232464D45F8223053
:101FD4004B6813F4803F65D0444A136843EA0E0308
:101FE40013604B6813F4003F62D0404A536843EADD
:101FF4000E0353604B6813F4801F5FD03B4A936811
:1020040043EA0E0393604B6813F4001F5CD0374A15
:10201400D36843EA0E03D3600CF1010C0A6832FA68
:102024000CF357D0012303FA0CF302EA030E33EA4C
:102034000202F1D14A68122A3FF63FAF122A3FF654
:102044005CAF01A555F822F0E71E0008931F0008B5
:102054009D1F0008AF1F0008FF1E0008FF1E000898
:10206400FF1E0008FF1E0008FF1E0008FF1E0008D8
:10207400FF1E0008FF1E0008FF1E0008FF1E0008C8
:10208400FF1E0008FF1E0008FF1E0008971F00081F
:10209400A31F0008012395E7022393E7032391E795
:1020A40004238FE7114A136823EA0E03136098E7A9
:1020B4000E4A536823EA0E0353609BE70B4A936866
:1020C40023EA0E0393609EE7084AD36823EA0E03CB
:1020D400D360A1E702B070BD0000221000003110EF
:1020E40000100240000001400008014000040140CB
:1020F4000AB10161704709040161704730B40124D9
:10210400056CAC40C56B6C60046863604368102B5D
:1021140005D0036899600368DA6030BC70470368CF
:102124009A600368D960F8E700283AD010B40246F0
:1021340000681D4B984229D81C4B03441C49A1FB41
:1021440003131B099B0013641A4BD363022382F805
:102154002130016821F47F5121F0300153689468E3
:102164002343D46823431469234354692343946960
:102174002343D46923430B4303600020906301236A
:1021840082F8213082F8200010BC70470A4B0344C7
:102194000749A1FB03131B099B001364074BD3637B
:1021A400D4E70120704700BF07040240F8FFFDBFD9
:1021B400CDCCCCCC00000240F8FBFDBF00040240B3
:1021C40038B5044690F82000012831D0012084F865
:1021D400200094F82100012804D0002384F8203042
:1021E400022038BD022084F821000020A063256865
:1021F400286820F0010028602046FFF77FFFE36A8B
:102204005BB12268136843F00E03136022681368FD
:1022140043F0010313600020E3E72268136823F00E
:10222400040313602268136843F00A031360EDE7A4
:102234000220D6E790F82130022B06D004238363D2
:10224400002380F82030012070470268136823F0CF
:102254000E0313600268136823F001031360036C18
:10226400C16B012202FA03F34B6080F821200023A2
:1022740080F820301846704708B590F82130022BBA
:1022840003D004238363012008BD0268136823F08C
:102294000E0313600268136823F0010313600368DC
:1022A4004B4A93424ED9783A934224D01432934203
:1022B40030D0143293422FD0143293422FD01432A0
:1022C40093422FD0143293422FD0143293422FD002
:1022D40002F5627293422ED0143293422DD01432FE
:1022E40093422CD01432934202D04FF4803203E054
:1022F4004FF4805200E00122364B5A60012380F8EB
:102304002130002380F82030436B002B5ED09847A7
:102314000020B9E71022EFE74FF48072ECE74FF4A6
:102324008052E9E74FF48032E6E74FF48012E3E7A6
:102334004FF08072E0E70122DEE71022DCE74FF481
:102344008072D9E7244A934224D01432934225D090
:102354001432934224D01432934224D01432934240
:1023640024D01432934224D01432934224D002F560
:102374006272934223D01432934222D01432934295
:1023840021D01432934202D04FF4803203E04FF450
:10239400805200E00122114B5A60AFE71022FAE7A5
:1023A4004FF48072F7E74FF48052F4E74FF4803231
:1023B400F1E74FF48012EEE74FF08072EBE7012271
:1023C400E9E71022E7E74FF48072E4E700205BE7D7
:1023D4008000024000040240080002400000024065
:1023E40038B5C36B1A6804682568016C04238B40F4
:1023F400134200F09B8015F0040F00F097802368CF
:1024040013F0200F03D1236823F00403236003682F
:102414009A4A934246D9783A934224D0143293424A
:1024240028D01432934227D01432934227D0143246
:10243400934227D01432934227D01432934227D0A8
:1024440002F56272934226D01432934225D014329C
:10245400934224D01432934202D04FF4802203E0FA
:102464004FF4804200E00422854B5A60C36A03B1F2
:10247400984738BD4022F7E74FF48062F4E74FF401
:102484008042F1E74FF48022EEE74FF48002EBE75D
:102494004FF08062E8E70422E6E74022E4E74FF4E5
:1024A4008062E1E7774A934224D01432934225D0E4
:1024B4001432934224D01432934224D014329342DF
:1024C40024D01432934224D01432934224D002F5FF
:1024D4006272934223D01432934222D01432934234
:1024E40021D01432934202D04FF4802203E04FF4FF
:1024F400804200E00422644B5A60B7E74022FAE7C6
:102504004FF48062F7E74FF48042F4E74FF48022FF
:10251400F1E74FF48002EEE74FF08062EBE704222C
:10252400E9E74022E7E74FF48062E4E702238B40C7
:10253400134200F0AB8015F0020F00F0A78023686F
:1025440013F0200F06D1236823F00A03236001232C
:1025540080F821300368494A93424BD9783A934230
:1025640024D0143293422DD0143293422CD01432FE
:1025740093422CD0143293422CD0143293422CD058
:10258400143293422CD002F5627293422BD014324F
:1025940093422AD01432934229D01432934202D067
:1025A4004FF4003203E04FF4005200E00222344BB7
:1025B4005A60002380F82030836A002B3FF459AF1F
:1025C400984756E72022F2E74FF40072EFE74FF402
:1025D4000052ECE74FF40032E9E74FF40012E6E76B
:1025E4004FF00072E3E70222E1E72022DFE74FF435
:1025F4000072DCE7234A934224D01432934225D05C
:102604001432934224D01432934224D0143293428D
:1026140024D01432934224D01432934224D002F5AD
:102624006272934223D01432934222D014329342E2
:1026340021D01432934202D04FF4003203E04FF41D
:10264400005200E00222104B5A60B2E72022FAE75F
:102654004FF40072F7E74FF40052F4E74FF40032FE
:10266400F1E74FF40012EEE74FF00072EBE70222BD
:10267400E9E72022E7E74FF40072E4E78000024034
:10268400000402400800024000000240082303FA4C
:1026940001F111423FF4EDAE15F0080F3FF4E9AE3D
:1026A400236823F00E032360026CC16B012303FA39
:1026B40002F24A60836380F82130002380F82030DE
:1026C400036B002B3FF4D5AE9847D2E6074AD36894
:1026D40023F4E0631B041B0C000200F4E0600343DA
:1026E40043F0BF6343F40033D360704700ED00E070
:1026F40000B5194BDB68C3F30223C3F1070CBCF12B
:10270400040F28BF4FF0040C03F1040EBEF1060FB2
:1027140018D9033B4FF0FF3E0EFA0CFC21EA0C01E2
:1027240099400EFA03F322EA0303194300280BDB52
:102734000901C9B200F1604000F5614080F800135E
:102744005DF804FB0023E5E700F00F000901C9B2BE
:10275400024B1954F4E700BF00ED00E014ED00E073
:10276400002807DB00F01F02400901239340024ABE
:1027740042F82030704700BF00E100E00138B0F1BA
:10278400807F0BD24FF0E0235861054AF02182F894
:1027940023100020986107221A61704701207047B6
:1027A40000ED00E00268D36823F0C003D360202367
:1027B40080F83D3070470268D36823F49073D36087
:1027C4000268536923F001035361036B012B05D0A5
:1027D400202380F83E300023036370470268D368E7
:1027E40023F01003D360F3E790F83D30DBB2212BE4
:1027F40001D0022070478368B3F5805F17D0036A65
:102804005A1C02621A7803685A60C38C9BB2013B5B
:102814009BB2C3844BB90268D36823F08003D360AE
:102824000268D36843F04003D36000207047036913
:10283400002BE4D1036A1B880268C3F308035360C6
:10284400036A02330362E0E710B5044602681369C1
:1028540023F44053C1680B43136183680269134333
:1028640042691A430168CB6823F4B05323F00C0384
:102874001343CB600268536923F4407381690B43AB
:1028840053610268134B9A4220D0FFF7F1FA0246D3
:1028940002EB820202EB820263689B00B2FBF3F25A
:1028A4000D48A0FB02314909642303FB11231B01DA
:1028B4003233A0FB03235B0903F0F00202EB0112A5
:1028C40003F00F03216813448B6010BDFFF7E0FA97
:1028D4000246DDE7003801401F85EB5158B310B5BF
:1028E400044690F83D300BB3242384F83D3022682D
:1028F400D36823F40053D3602046FFF7A5FF226872
:10290400136923F4904313612268536923F02A0363
:1029140053612268D36843F40053D36000202064D9
:10292400202384F83D3084F83E3010BD80F83C30DC
:10293400FEF7ECF8D8E701207047704708B5016846
:10294400CA6822F04002CA60202280F83D20FFF7C6
:10295400F4FF002008BD7047704710B5446A23682F
:102964005A6994F83D30DBB2212B10D023685A69A0
:1029740002F0400294F83E30DBB2222B11D0236CDB
:1029840043F0100323642046FFF7E6FF10BD02F076
:102994008002002AEAD00023E3842046FFF702FFE6
:1029A400E4E7002AEBD00023E3852046FFF703FF8A
:1029B400E5E708B5406A0023C385C384FFF7CCFF6D
:1029C40008BD704790F83E30DBB2222B60D183689B
:1029D400B3F5805F46D0826AB3F5805F04D0002BE4
:1029E4004DD10369002B4AD103685B681370836A75
:1029F40001338362C38D9BB2013B9BB2C385002B21
:102A040048D100B583B00268D36823F02003D360B3
:102A14000268D36823F48073D3600268536923F097
:102A240001035361202380F83E30036B012B2CD12A
:102A3400002303630268D36823F01003D3600368A0
:102A44001A6812F0100F06D0002201921A6801923F
:102A54005B680193019B818DFFF7B3FF002003B0F6
:102A64005DF804FB0269002AB5D1826A03685B68D9
:102A7400C3F308031380836A02338362BAE70368EB
:102A84005B6803F07F031370B1E7FDF761FCE5E7D2
:102A9400022070470020704730B583B004460268B6
:102AA4001368D068516913F00F0505D113F0200F96
:102AB40002D010F0200F19D12DB111F0010119D15C
:102AC40010F4907F16D1216B012975D013F0800F7B
:102AD40003D010F0800F40F0D78013F0400F03D0E4
:102AE40010F0400F40F0D48003B030BD2046FFF713
:102AF40069FFF9E713F0010F06D010F4807F03D0CB
:102B0400226C42F00102226413F0040F04D019B1C4
:102B1400226C42F00202226413F0020F04D019B1B5
:102B2400226C42F00402226413F0080F07D010F064
:102B3400200F00D119B1226C42F008022264226CE9
:102B4400002AD1D013F0200F02D010F0200F21D191
:102B540023685B6903F04003226C12F0080F00D174
:102B640023B32046FFF727FE23685A6912F0400F6B
:102B740018D05A6922F040025A61A36B73B1464AD5
:102B84005A63A06BFFF778FB0028ADD0A06B436BB2
:102B94009847A9E72046FFF715FFD9E72046FFF736
:102BA400DBFEA1E72046FFF7D7FE9DE72046FFF7AF
:102BB400D3FE0023236497E713F0100F86D010F0A0
:102BC400100F83D00023019313680193536801937A
:102BD400019B536913F0400F32D0A16B0B685B6803
:102BE4009BB2002B80D0A08D98427FF67DAFE38509
:102BF4008B69202B08D1A18DE38D9BB2C91A89B2B0
:102C04002046FFF7DEFE6FE7D36823F48073D360BA
:102C14002268536923F0010353612268536923F046
:102C240040035361202384F83E3000232363226849
:102C3400D36823F01003D360A06BFFF7FBFADAE745
:102C4400A18DE38D9BB2C91A89B2E38D9BB2002B8F
:102C54003FF44AAF00293FF447AFD36823F490739D
:102C6400D3602268536923F001035361202384F85D
:102C74003E30002323632268D36823F01003D3601B
:102C84002046FFF79EFE2FE72046FFF7ADFD2BE71A
:102C94002046FFF753FE27E7B729000808B5406A26
:102CA400036B012B02D0FFF756FE08BD818D490846
:102CB400FFF787FEF9E708B50346406A1B681B68FF
:102CC40013F0200F16D10023C3850268D36823F4C0
:102CD4008073D3600268536923F00103536102686F
:102CE400536923F040035361202380F83E30036B83
:102CF400012B05D0036B012B08D0FDF729FB08BD80
:102D04000268D36823F01003D360F3E7818DFFF7E3
:102D140058FEF4E7034681628285C2850020186468
:102D2400222283F83E2083F83C001968CA6842F4E2
:102D34008072CA6019684A6942F001024A611A68DD
:102D4400D36843F02003D360704708B590F83E3051
:102D5400DBB2202B0DD171B17AB190F83C30012B4C
:102D64000DD0012380F83C3000230363FFF7D2FF2A
:102D740000E0022008BD0120FCE70120FAE7022060
:102D8400F8E7000030B583B00446134681628285BB
:102D940000250564222280F83E20826B144890624C
:102DA400A26B1448D062A26B13481063A26B5563E4
:102DB40020680A46011DA06BFFF702FA01952368FB
:102DC4001A6801925A680192019A84F83C50DA68B0
:102DD40042F48072DA602268536943F0010353615C
:102DE4002268536943F040035361284603B030BD61
:102DF400BB2C0008A12C00085F29000808B590F836
:102E04003E30DBB2202B0DD171B17AB190F83C3059
:102E1400012B0DD0012380F83C3000230363FFF71E
:102E2400B1FF00E0022008BD0120FCE70120FAE721
:102E34000220F8E7704700000C480D490D4A0023B2
:102E440002E0D458C4500433C4188C42F9D30A4A5B
:102E54000A4C002301E013600432A242FBD3FFF7C3
:102E6400E9FF00F00FF8FDF7A9FA70470000002011
:102E74000C0000202C2F00080C000020A4020020CD
:102E8400FEE7000070B500260C4D0D4C641BA41029
:102E9400A64209D100F022F800260A4D0A4C641B10
:102EA400A410A64205D170BD55F8043B98470136DD
:102EB400EEE755F8043B98470136F2E7242F000863
:102EC400242F0008242F0008282F0008034602445A
:102ED400934200D1704703F8011BF9E7F8B500BF2E
:102EE400F8BC08BC9E467047F8B500BFF8BC08BCE7
:042EF4009E4670473F
:102EF80002030405060708090A0B0C0D0E0F101033
:102F080000000000000000000000000001020304AF
:0C2F180006070809000000000102030485
:042F24000902000896
:042F2800E5010008B7
:0C2F2C000A060100100000000024F40060
:0400000508002E3D84
:00000001FF
