:020000040800F2
:1000000000C00020F92C0008650C0008670C0008EF
:10001000690C00086B0C00086D0C00080000000063
:100020000000000000000000000000006F0C00084D
:10003000710C000800000000730C0008750C00082B
:10004000412D0008412D0008412D0008412D0008D8
:10005000412D0008412D0008412D0008412D0008C8
:10006000412D0008412D0008412D0008412D0008B8
:10007000412D0008412D0008412D0008412D0008A8
:10008000412D0008412D0008412D0008412D000898
:10009000412D0008412D0008412D0008412D000888
:1000A0007D0C00088D0C00089D0C0008AD0C0008AC
:1000B000BD0C0008CD0C0008DD0C0008412D000827
:1000C000412D0008412D0008412D0008412D000858
:1000D000412D0008412D0008412D0008412D000848
:1000E000412D0008412D0008412D0008412D000838
:1000F000412D0008412D0008412D0008412D000828
:10010000412D0008412D0008ED0C0008412D00088C
:10011000FD0C00080D0D0008412D0008412D0008C0
:10012000412D0008412D00081D0D0008412D00083B
:1001300000000000000000000000000000000000BF
:1001400000000000000000000000000000000000AF
:10015000000000000000000000000000000000009F
:10016000000000000000000000000000000000008F
:10017000000000000000000000000000000000007F
:10018000000000000000000000000000000000006F
:10019000000000000000000000000000000000005F
:1001A000000000000000000000000000000000004F
:1001B000000000000000000000000000000000003F
:1001C000000000000000000000000000000000002F
:1001D000000000000000000000000000000000001F
:0401E0005FF8E0F1F3
:1001E40010B5054C237833B9044B13B10448AFF36D
:1001F40000800123237010BD700000200000000067
:10020400AC36000808B5034B1BB103490348AFF3F0
:10021400008008BD0000000074000020AC36000817
:10022400034613F8012B002AFBD1181A0138704732
:1002340070B505460C463E4B03F8301099B9431E81
:10024400032B10D8DFE803F002121E2C394E0122D2
:100254004FF48061304601F057FF00224FF40061F3
:10026400304601F051FF012C26D070BD314E0122E1
:100274000221304601F048FF00220421304601F0FB
:1002840043FFF0E72B4E01224FF48041304601F04A
:100294003BFF00224FF40041304601F035FFE2E716
:1002A400254E01224021304601F02EFF00228021FC
:1002B400304601F029FFD6E7013D032DD5D8DFE80C
:1002C40005F002101C2A1B4C00224FF480612046CA
:1002D40001F01AFF01224FF40061204601F014FFDF
:1002E400C3E7144C00220221204601F00DFF012235
:1002F4000421204601F008FFB7E70E4C00224FF41A
:100304008041204601F000FF01224FF400412046C5
:1003140001F0FAFEA9E7084C00224021204601F032
:10032400F3FE01228021204601F0EEFE9DE700BF8E
:100334008C000020000C01400010014038B5026818
:100344000C4B9A4200D038BD0B4B1D68696A0B4BAD
:100354001C68636A0A4B1868436A0A4B1A68536A32
:1003640000236B62636243625362074800F05CFCE3
:10037400E9E700BF002C0140FC00002044010020FC
:100384008C010020D4010020C436000872B6FEE7B8
:1003940000B591B02822002106A802F0F5FC002344
:1003A40001930293039304930593012206924FF45D
:1003B400803307930A9202220D920E934FF4E013B6
:1003C4000F9306A801F064FA80B90F230193022168
:1003D4000291002303934FF480620492059301A8D1
:1003E40001F096FC20B911B05DF804FBFFF7CEFFD5
:1003F400FFF7CCFF08B501F011FAFFF7C9FF00F0D1
:100404004BF800F0A3F800F0ADFA00F0B9F800F0F2
:10041400E9F800F019F900F049F900F033FB00F0B5
:100424004BFB184C23686FF001021A61204600F060
:100434005FFD0021204601F081F80421204601F0EF
:100444007DF80821204601F079F80C21204601F0BE
:1004540075F83C210C4801F0EBF83C210B4801F005
:10046400E7F83C210A4801F0E3F83C21094801F08F
:10047400DFF800210120FFF7DBFE024B1B68FA22A4
:100484005A63F6E7B4000020FC0000204401002079
:100494008C010020D40100202DE9F04188B0002413
:1004A4000494059406940794254B9A6942F020021B
:1004B4009A619A6902F020020092009A9A6942F0C5
:1004C40004029A619A6902F004020192019A9A69FB
:1004D40042F008029A619A6902F008020292029AB2
:1004E4009A6942F010029A619B6903F01003039326
:1004F400039BDFF8508022464CF60641404601F04B
:1005040003FE114D2246C021284601F0FDFD4CF6A4
:10051400064304930127059706940226079604A927
:10052400404601F0D1FCC023049305970694079636
:1005340004A9284601F0C8FC08B0BDE8F08100BF5A
:1005440000100240000C01400010014000B583B0CF
:100554000A4B5A6942F002025A615B6903F00203D2
:100564000193019B002211463A2002F07DF83A20C3
:1005740002F0B2F803B05DF804FB00BF00100240C3
:1005840000B58DB02422002103A802F0FDFB002356
:100594000193029312484FF08042026043608360EB
:1005A4004FF6FF72C2600361836103230393012347
:1005B4000593099303A900F03DFE50B9002301936C
:1005C400029301A9064801F099F828B90DB05DF825
:1005D40004FBFFF7DBFEF1E7FFF7D8FEF6E700BF09
:1005E400FC00002000B58DB02422002103A802F0F5
:1005F400CBFB0023019302931148124A026043602B
:1006040083604FF6FF72C260036183610323039327
:1006140001230593099303A900F00CFE50B90023AC
:100624000193029301A9064801F068F828B90DB0B6
:100634005DF804FBFFF7AAFEF1E7FFF7A7FEF6E774
:10064400440100200004004000B58DB024220021A4
:1006540003A802F099FB0023019302931148124A64
:100664000260436083604FF6FF72C260036183617E
:100674000323039301230593099303A900F0DAFDEF
:1006840050B900230193029301A9064801F036F8FA
:1006940028B90DB05DF804FBFFF778FEF1E7FFF72A
:1006A40075FEF6E78C0100200008004000B58DB00F
:1006B4002422002103A802F067FB00230193029384
:1006C4001148124A0260436083604FF6FF72C260B1
:1006D400036183610323039301230593099303A90E
:1006E40000F0A8FD50B900230193029301A9064824
:1006F40001F004F828B90DB05DF804FBFFF746FEDD
:10070400F1E7FFF743FEF6E7D4010020000C0040B8
:1007140002681A4B9A4200D0704700B583B003F5C3
:1007240064439A6942F400629A619B6903F400632A
:100734000193019B00221146182001F095FF182017
:1007440001F0CAFF00221146192001F08DFF192083
:1007540001F0C2FF002211461A2001F085FF1A2081
:1007640001F0BAFF002211461B2001F07DFF1B207F
:1007740001F0B2FF03B05DF804FB00BF002C0140A0
:1007840010B58EB000230A930B930C930D9303685A
:10079400B3F1804F0BD0584A934247D0574A934203
:1007A40066D0574A934200F085800EB010BD03F521
:1007B4000433DA6942F00102DA61DA6902F0010213
:1007C4000192019A9A6942F004029A619A6902F0CC
:1007D40004020292029A9A6942F008029A619B69A1
:1007E40003F008030393039B4FF400430A930AA9FD
:1007F400444801F069FB08230A9300240B940C94E9
:100804000AA9414801F060FB404A536823F440734D
:1008140043F0E06343F480735360224621461C2076
:1008240001F022FF1C2001F057FFBEE7384BDA69C4
:1008340042F00202DA61DA6902F002020492049AD6
:100844009A6942F004029A619B6903F004030593D8
:10085400059BC0230A930AA92A4801F035FB00220C
:1008640011461D2001F000FF1D2001F035FF9CE71B
:10087400274BDA6942F00402DA61DA6902F0040211
:100884000692069A9A6942F008029A619B6903F0FB
:1008940008030793079BC0230A930AA91A4801F087
:1008A40013FB002211461E2001F0DEFE1E2001F083
:1008B40013FF7AE7164BDA6942F00802DA61DA6963
:1008C40002F008020892089A9A6942F004029A61B6
:1008D4009B6903F004030993099B03230A930AA960
:1008E400084801F0F1FA00221146322001F0BCFE62
:1008F400322001F0F1FE58E70004004000080040F7
:10090400000C004000080140000C014000000140C0
:100914000010024000B587B00023029303930493B0
:10092400059302680D4B9A4202D007B05DF804FBB0
:1009340003F564439A6942F004029A619B6903F0E7
:1009440004030193019B4FF4706302930223039306
:10095400059302A9024801F0B7FAE6E7002C01402A
:100964000008014010B596B0002412941394149416
:1009740015941094119409940A940B940C940D9466
:100984000E940F942022214601A802F0FDF93B4861
:100994003B4B036047234360846040F2E733C3600A
:1009A40004614461846100F0EDFB00284BD14FF4F5
:1009B4008053129312A9314800F044FD002845D118
:1009C4002E4800F00BFC002843D100231093119310
:1009D40010A92A4800F092FE00283DD16023099313
:1009E40000220A920B920C920D920E920F9209A978
:1009F400224800F0B3FC002831D1042209A91F4881
:100A040000F0ACFC70BB082209A91C4800F0A6FC4D
:100A140058BB0C2209A9194800F0A0FC40BB0023D4
:100A2400019302930393049305934FF400520692A7
:100A3400089301A9114800F09FFEE0B90F48FFF7A1
:100A440069FF16B010BDFFF7A1FCB0E7FFF79EFCED
:100A5400B6E7FFF79BFCB8E7FFF798FCBEE7FFF7A4
:100A640095FCCAE7FFF792FCCDE7FFF78FFCD0E7D0
:100A7400FFF78CFCD3E7FFF789FCDFE7B400002025
:100A8400002C014008B50A480A4B03604FF4E133D7
:100A9400436000238360C36003610C22426183616D
:100AA400C36101F005FF00B908BDFFF76FFCFBE768
:100AB40060020020004C004008B50A480A4B03605D
:100AC4004FF4E133436000238360C36003610C226D
:100AD40042618361C36101F0EBFE00B908BDFFF719
:100AE40055FCFBE7A40200200050004070B58AB01A
:100AF400002306930793089309930368434A934298
:100B040004D0434A934248D00AB070BD0446414BD6
:100B1400DA6942F40022DA61DA6902F4002201920D
:100B2400019A9A6942F010029A619B6903F01003DA
:100B34000293029B4FF480630693022307930323DB
:100B44000993354E06A9304601F0BEF94FF400630F
:100B5400069300250795089506A9304601F0B4F9D7
:100B64002E482F4B0360456085608023C360056178
:100B740045618561C56101F0CDFA58B9274BA3637E
:100B84005C6200221146342001F06EFD342001F035
:100B9400A3FDB9E7FFF7FAFBF0E71E4BDA6942F46D
:100BA4008012DA61DA6902F480120392039A9A6974
:100BB40042F010029A619A6902F010020492049AB7
:100BC4009A6942F020029A619B6903F0200305931D
:100BD400059B4FF480530693022307930323099341
:100BE40006A90D4801F070F9042306930024079424
:100BF400089406A90B4801F067F9224621463520DE
:100C040001F032FD352001F067FD7DE7004C004026
:100C14000050004000100240001001401C0200205F
:100C240030040240001401400FB400B5B5B036AA38
:100C340052F8041B339201A802F0C4F801A8FFF78C
:100C4400EFFA4FF0FF3382B201A9044801F05FFECE
:100C540035B05DF804EB04B0704700BFA402002077
:100C6400FEE7FEE7FEE7FEE7FEE7704770477047E2
:100C740008B500F0E5FD08BD08B5024800F079F9B3
:100C840008BD00BFB400002008B5024800F071F9A7
:100C940008BD00BFB400002008B5024800F069F99F
:100CA40008BD00BFB400002008B5024800F061F997
:100CB40008BD00BFB400002008B5024800F059F98F
:100CC40008BD00BFFC00002008B5024800F051F93F
:100CD40008BD00BF4401002008B5024800F049F9EE
:100CE40008BD00BF8C01002008B5024800F041F99E
:100CF40008BD00BFD401002008B5024801F0F6FE8B
:100D040008BD00BF6002002008B5024801F0EEFEF5
:100D140008BD00BFA402002008B5024801F01CFB76
:100D240008BD00BF1C02002082B00E4B9A6942F03D
:100D340001029A619A6902F001020092009ADA694A
:100D440042F08052DA61DB6903F080530193019B26
:100D5400054A536823F0E06343F00073536002B024
:100D6400704700BF001002400000014030B4036A25
:100D740023F001030362036A4268846924F0730464
:100D84000D682C4323F0020C8B6843EA0C03104DCE
:100D9400A84203D005F50065A84205D123F0080355
:100DA400CD682B4323F00403094DA84203D005F575
:100DB4000065A84205D122F440724D692A438D6929
:100DC4002A43426084614A684263036230BC7047CC
:100DD400002C014030B4036A23F480730362036A75
:100DE4004268C46924F0730C0C6844EA0C0523F4CB
:100DF40000738C6843EA0423114CA04203D004F529
:100E04000064A04206D123F40063CC6843EA0423BF
:100E140023F480630A4CA04203D004F50064A0428A
:100E240007D122F440524C6942EA04128C6942EA26
:100E340004124260C5614A68C263036230BC7047F1
:100E4400002C014030B4036A23F480530362036A24
:100E54004468C26922F4E6420D6842EA052223F49A
:100E640000538D6843EA0533094DA84203D005F5C4
:100E74000065A84204D124F480444D6944EA8514F1
:100E84004460C2614A680264036230BC704700BFB8
:100E9400002C014010B4036A046A24F001040462C3
:100EA400846924F0F00C4CEA021223F00A030B4389
:100EB4008261036210BC704710B4046A24F0100409
:100EC40004628469036A24F4704C4CEA023223F00D
:100ED400A00343EA01138261036210BC7047836874
:100EE40023F070030B4343F0070383607047000053
:100EF40090F83D30DBB2012B2FD1022380F83D3036
:100F04000268D36843F00103D3600368154A93422F
:100F140018D002F50062934214D0B3F1804F11D07F
:100F2400A2F5983293420DD002F58062934209D023
:100F340002F58062934205D01A6842F001021A60F9
:100F4400002070479A6802F00702062A07D01A6840
:100F540042F001021A60002070470120704700200F
:100F6400704700BF002C01407047704770477047BE
:100F7400704710B5044603681A6912F0020F11D0C5
:100F8400DA6812F0020F0DD06FF002021A61012329
:100F9400037703689B6913F0030F70D0FFF7E6FF34
:100FA4000023237723681A6912F0040F12D0DA6839
:100FB40012F0040F0ED06FF004021A61022323779B
:100FC40023689B6913F4407F5FD02046FFF7CEFF70
:100FD4000023237723681A6912F0080F12D0DA6805
:100FE40012F0080F0ED06FF008021A610423237761
:100FF4002368DB6913F0030F4ED02046FFF7B6FFDA
:101004000023237723681A6912F0100F12D0DA68CC
:1010140012F0100F0ED06FF010021A61082323771C
:101024002368DB6913F4407F3DD02046FFF79EFF21
:101034000023237723681A6912F0010F03D0DA68BA
:1010440012F0010F36D123681A6912F0800F03D011
:10105400DA6812F0800F34D123681A6912F0400F55
:1010640003D0DA6812F0400F32D123681A6912F003
:10107400200F03D0DA6812F0200F30D110BDFFF733
:1010840074FF2046FFF773FF8AE72046FFF76DFFE2
:101094002046FFF76CFF9BE72046FFF766FF2046DC
:1010A400FFF765FFACE72046FFF75FFF2046FFF739
:1010B4005EFFBDE76FF001021A612046FFF73EF9BB
:1010C400C1E76FF080021A61204600F07FFBC3E79E
:1010D4006FF040021A612046FFF74AFFC5E76FF040
:1010E40020021A61204600F070FBC7E70368244A17
:1010F400904212D002F5006290420ED0B0F1804FBF
:101104000BD0A2F59832904207D002F5806290424B
:1011140003D002F58062904203D123F070034A6841
:101124001343174A904212D002F5006290420ED047
:10113400B0F1804F0BD0A2F59832904207D002F55F
:101144008062904203D002F58062904203D123F47E
:101154004073CA68134323F080034A69134303604E
:101164008B68C3620B688362054B984203D003F516
:101174000063984201D10B69036301234361704703
:10118400002C014040B310B5044690F83D30F3B153
:10119400022384F83D30214651F8040BFFF7A6FFE3
:1011A400012384F8463084F83E3084F83F3084F8D4
:1011B400403084F8413084F8423084F8433084F875
:1011C400443084F8453084F83D30002010BD80F868
:1011D4003C30FFF79DFADBE70120704740B310B5C0
:1011E400044690F83D30F3B1022384F83D302146A3
:1011F40051F8040BFFF77AFF012384F8463084F892
:101204003E3084F83F3084F8403084F8413084F82C
:10121400423084F8433084F8443084F8453084F80C
:101224003D30002010BD80F83C30FFF79DFEDBE729
:1012340001207047002857D070B50D46044690F839
:101244003D30002B4BD0022384F83D302268936854
:1012540023F4804323F007039360214651F8040BE1
:10126400FFF744FF21688A688B690E6A2868104377
:1012740023F4407C2CF0030CAA68AB6942EA0323F4
:1012840043EA0C0323F47C4323F0FC03EA69D5F816
:101294000CC04CEA022C4CEA030C2A6A13032A6998
:1012A40043EA021343EA0C0326F022066A686D69D6
:1012B40042EA05123243886021688B6123681A620E
:1012C400012384F8463084F83E3084F83F3084F8B3
:1012D400423084F8433084F83D30002070BD80F8FB
:1012E4003C30FFF74DFAAEE70120704730B4036A93
:1012F40023F010030362036A4468826922F4E6421D
:101304000D6842EA052223F020038D6843EA0513A1
:10131400114DA84203D005F50065A84206D123F07B
:101324008003CD6843EA051323F040030A4DA84225
:1013340003D005F50065A84207D124F440644D6943
:1013440044EA85048D6944EA8504446082614A68FC
:101354008263036230BC7047002C014038B590F8BA
:101364003C30012B60D004460D46012380F83C300C
:101374000C2A1AD8DFE802F0071919191D191919CE
:101384003119191944000068FFF7F0FC22689369C9
:1013940043F0080393612268936923F00403936183
:1013A4002268936929690B439361002084F83C0007
:1013B40038BD0068FFF79AFF2268936943F400631D
:1013C40093612268936923F480639361226893692B
:1013D400296943EA01239361E7E70068FFF7FAFC10
:1013E4002268D36943F00803D3612268D36923F0E8
:1013F4000403D3612268D36929690B43D361D4E719
:101404000068FFF71FFD2268D36943F40063D361CA
:101414002268D36923F48063D3612268D36929697C
:1014240043EA0123D361C0E70220C1E710B4846812
:1014340024F47F4C42EA03220A4342EA0C0282600B
:1014440010BC704790F83C30012B66D010B50446B0
:10145400012380F83C30022380F83D300268936811
:1014640023F47F4323F0770393600B68602B40D011
:1014740022D8402B47D00BD9502B0ED1CA684968CB
:101484000068FFF707FD50212068FFF728FD04E0FE
:10149400202B0CD008D9302B09D0012384F83D30FF
:1014A400002084F83C0010BD0BB1102BF5D1194677
:1014B4002068FFF714FDF0E7702B0ED0B3F5005F42
:1014C400EBD1CB684A6889680068FFF7AFFF2268F0
:1014D400936843F480439360DFE7CB684A68896884
:1014E4000068FFF7A3FF2268936843F077039360D3
:1014F400D3E7CA6849680068FFF7DEFC602120680A
:10150400FFF7EDFCC9E7CA6849680068FFF7C2FC49
:1015140040212068FFF7E3FCBFE70220704701F099
:101524001F01012303FA01FC036A23EA0C0303628B
:10153400036A02FA01F10B430362704710B50446D3
:10154400084600293AD194F83E30DBB2013B18BF7B
:101554000123002B66D1002849D1022384F83E30B0
:10156400012201462068FFF7DAFF23682F4A9342DD
:1015740003D002F50062934203D15A6C42F4004254
:101584005A642368294A934241D002F50062934287
:101594003DD0B3F1804F3AD0A2F59832934236D081
:1015A40002F58062934232D002F5806293422ED0DB
:1015B4001A6842F001021A60002032E0042908D0BF
:1015C40008290DD094F84130DBB2013B18BF012348
:1015D400BFE794F83F30DBB2013B18BF0123B8E703
:1015E40094F84030DBB2013B18BF0123B1E7042873
:1015F40005D0082807D0022384F84130B0E702233D
:1016040084F83F30ACE7022384F84030A8E79A68B6
:1016140002F00702062A07D01A6842F001021A6093
:10162400002010BD0120FCE70020FAE7002C014057
:1016340038B5044690F83E00C0B294F83F3094F8B0
:101644004220D2B294F843C00D46B1B9012849D121
:10165400012A48D1022384F83E3084F842307DB315
:10166400042D39D0012200212068FFF758FF012200
:1016740004212068FFF753FF27E0DBB25FFA8CFCFC
:10168400042912D0012833D1012B2CD1012A31D1C4
:10169400BCF1010F30D1022384F83E3084F83F308E
:1016A40084F8423084F84330D9E7012B1CD1BCF1D3
:1016B400010F1BD1022384F83F3084F84330CEE776
:1016C400012200212068FFF72AFF2268136843F0F3
:1016D40001031360002006E0012204212068FFF7C3
:1016E4001EFFF2E7012038BD0120FCE71846FAE7A7
:1016F4000120F8E71846F6E71046F4E790F83C3086
:10170400012B34D010B4012380F83C30022380F83C
:101714003D3003685A689C6822F0700C0A6842EAFB
:101724000C025A600368134A934212D002F5006215
:1017340093420ED0B3F1804F0BD0A2F5983293426E
:1017440007D002F58062934203D002F5806293428F
:1017540004D124F080044A6814439C60012380F877
:101764003D30002380F83C30184610BC70470220FE
:10177400704700BF002C014090F83C30012B22D070
:10178400012380F83C30CB6823F440738A68134308
:1017940023F480634A68134323F400630A68134301
:1017A40023F480530A69134323F400534A6913430F
:1017B40023F48043CA69134302685364002380F806
:1017C4003C3018467047022070477047704700004D
:1017D40010B504460E4B18784FF47A73B3FBF0F34C
:1017E4000C4A1068B0FBF3F000F084FF68B90F2CCA
:1017F40001D901200AE0002221464FF0FF3000F019
:1018040033FF054B1C60002000E0012010BD00BF29
:1018140000000020080000200400002008B5074A4A
:10182400136843F010031360032000F00BFF0F2034
:10183400FFF7CEFFFFF778FA002008BD0020024032
:10184400034A1168034B1B780B441360704700BFB5
:10185400E802002000000020014B1868704700BF18
:10186400E802002082B0084B1B68084AA2FB03234D
:101874005B0A00FB03F3019300BF019B5A1E019214
:10188400002BF9D102B0704708000020D34D62103C
:10189400002800F0F18170B582B00446036813F0AB
:1018A400010F2CD0994B5B6803F00C03042B1DD063
:1018B400964B5B6803F00C03082B12D06368B3F5F6
:1018C400803F41D0002B55D103F1804303F504330D
:1018D4001A6822F480321A601A6822F480221A608C
:1018E40037E08A4B5B6813F4803FE7D0874B1B6873
:1018F40013F4003F03D06368002B00F0BF8123681A
:1019040013F0020F75D0814B5B6813F00C0F5FD09E
:101914007E4B5B6803F00C03082B54D02369002B27
:1019240000F08A807A4B01221A60FFF795FF054682
:10193400764B1B6813F0020F75D1FFF78DFF401B28
:101944000228F5D903209EE1704A136843F48033DA
:101954001360636843B3FFF77FFF05466B4B1B6857
:1019640013F4003FCBD1FFF777FF401B6428F5D970
:10197400032088E1B3F5A02F09D0644B1A6822F440
:1019840080321A601A6822F480221A60E1E703F1B7
:101994008043A3F53C331A6842F480221A601A6823
:1019A40042F480321A60D4E7FFF756FF0546574BDE
:1019B4001B6813F4003FA2D0FFF74EFF401B6428BE
:1019C400F5D903205FE1514B5B6813F4803FA5D147
:1019D4004E4B1B6813F0020F03D02369012B40F018
:1019E4004F814A4A136823F0F803616943EAC1034B
:1019F4001360236813F0080F33D0A369002B5CD065
:101A0400434B0122C3F88024FFF726FF05463F4BD2
:101A14005B6A13F0020F21D1FFF71EFF401B02285F
:101A2400F5D903202FE1394A136823F0F8036169DB
:101A340043EAC1031360DCE7354B00221A60FFF769
:101A44000BFF0546314B1B6813F0020FD1D0FFF793
:101A540003FF401B0228F5D9032014E10120FFF7FE
:101A640001FF236813F0040F00F09680274BDB6915
:101A740013F0805F34D1254BDA6942F08052DA6189
:101A8400DB6903F080530193019B0125214B1B6803
:101A940013F4807F26D0E368012B3DD0002B53D173
:101AA40003F1804303F504331A6A22F001021A6237
:101AB4001A6A22F004021A6233E0154B0022C3F8BA
:101AC4008024FFF7C9FE0546104B5B6A13F0020F32
:101AD400C7D0FFF7C1FE401B0228F5D90320D2E08E
:101AE4000025D3E70B4A136843F480731360FFF7B0
:101AF400B3FE0646074B1B6813F4807FCBD1FFF778
:101B0400ABFE801B6428F5D90320BCE00010024022
:101B140000004242007000405F4A136A43F0010330
:101B24001362E36833B3FFF797FE06465A4B1B6A0A
:101B340013F0020F2FD1FFF78FFE801B41F2883381
:101B44009842F3D903209EE0052B09D0524B1A6A20
:101B540022F001021A621A6A22F004021A62E0E711
:101B64004D4B1A6A42F004021A621A6A42F00102E8
:101B74001A62D6E7FFF770FE0646474B1B6A13F05E
:101B8400020F08D0FFF768FE801B41F288339842A9
:101B9400F3D9032077E0E5B9E369002B72D03E4A1C
:101BA400526802F00C02082A56D0022B17D03B4B85
:101BB40000221A66FFF750FE0446374B1B6813F0E9
:101BC400007F47D0FFF748FE001B0228F5D9032009
:101BD40059E0314AD36923F08053D361DCE72F4BBA
:101BE40000221A66FFF738FE05462B4B1B6813F0DC
:101BF400007F06D0FFF730FE401B0228F5D90320F2
:101C040041E0236AB3F5803F1AD023494B6823F49B
:101C14007413226A606A024313434B601F4B012210
:101C24001A66FFF719FE04461B4B1B6813F0007F6E
:101C34000ED1FFF711FE001B0228F5D9032022E084
:101C4400154A536823F40033A1680B435360DCE75F
:101C5400002018E0002016E0012B16D00E4B5B6824
:101C640003F48031226A914211D103F47013626A41
:101C740093420ED1002006E001207047012002E0CB
:101C8400012000E0002002B070BD0120FBE701202C
:101C9400F9E70120F7E700BF0010024000004242CC
:101CA40086B0174B0FCB0DF1180C0CE90F0040F266
:101CB4000123ADF80430134B5B6803F00C02082ACF
:101CC40002D0114806B07047C3F3834218326A4405
:101CD40012F8100C13F4803F0DD00A4B5B68C3F369
:101CE400404318336B4413F8143C074A02FB00F0DA
:101CF400B0FBF3F0E6E7054B03FB00F0E2E700BFBF
:101D0400D43600080010024000127A0000093D0099
:101D1400002800F0A08070B50D460446524B1B68A5
:101D240003F007038B420BD24F4A136823F00703D7
:101D34000B431360136803F007038B4240F08D805C
:101D4400236813F0020F17D013F0040F04D0474A8E
:101D5400536843F4E0635360236813F0080F04D01E
:101D6400424A536843F460535360404A536823F033
:101D7400F003A1680B435360236813F0010F31D0C3
:101D84006368012B20D0022B25D0384A126812F048
:101D9400020F64D035494A6822F0030213434B60B2
:101DA400FFF75AFD0646314B5B6803F00C0362688B
:101DB400B3EB820F16D0FFF74FFD801B41F288333F
:101DC4009842F0D9032045E0284A126812F4003FF3
:101DD400E0D101203EE0254A126812F0007FD9D1FB
:101DE400012037E0204B1B6803F00703AB420AD9FC
:101DF4001D4A136823F007032B431360136803F091
:101E04000703AB422DD1236813F0040F06D0174A01
:101E1400536823F4E063E1680B435360236813F0D1
:101E2400080F07D0114A536823F46053216943EA29
:101E3400C1035360FFF734FF0C4B5B68C3F3031318
:101E44000B4AD35CD8400B4B18600B4B1868FFF758
:101E5400BFFC002070BD012070470120FAE701207B
:101E6400F8E70120F6E700BF00200240001002401E
:101E7400E83600080800002004000020014B186820
:101E8400704700BF0800002008B5FFF7F7FF044BB8
:101E94005B68C3F30223034AD35CD84008BD00BF88
:101EA40000100240F836000808B5FFF7E7FF044BBE
:101EB4005B68C3F3C223034AD35CD84008BD00BFA8
:101EC40000100240F836000870B582B00024A44621
:101ED400B0E0874DAA4210D007D9864DAA420CD053
:101EE40005F58035AA4208D013E0A5F58015AA426D
:101EF40003D005F57025AA4207D18A68002A62D06A
:101F0400012A5BD04361082403E0A5F58015AA42A9
:101F1400F3D0BEF1FF0F58D80646BEF1FF0F56D8D6
:101F24004FEA8C0233680F25954023EA050304FA2F
:101F340002F2134333604B6813F0805F78D06E4B2A
:101F44009A6942F001029A619B6903F001030193CB
:101F5400019B4FEA9C02951C684B53F825600CF0DA
:101F640003039D000F23AB4026EA0306644B98420B
:101F740033D003F58063984200F0988003F58063C2
:101F8400984200F0958003F58063984200F09280B7
:101F940003F58063984200F08F8003F580639842D4
:101FA40019D006231AE0CC68B3E7CC680434B0E750
:101FB400CC680834ADE7CC680C34AAE70361082484
:101FC400A7E70024A5E70424A3E7061DA5E7ACF1D1
:101FD40008029200A6E7052300E00023AB40334348
:101FE4000232464D45F822304B6813F4803F65D0E9
:101FF400444A136843EA0E0313604B6813F4003F2A
:1020040062D0404A536843EA0E0353604B6813F4AA
:10201400801F5FD03B4A936843EA0E0393604B688A
:1020240013F4001F5CD0374AD36843EA0E03D3602D
:102034000CF1010C0A6832FA0CF357D0012303FAAD
:102044000CF302EA030E33EA0202F1D14A68122ABF
:102054003FF63FAF122A3FF65CAF01A555F822F0D8
:10206400FF1E0008AB1F0008B51F0008C71F0008AB
:10207400171F0008171F0008171F0008171F000864
:10208400171F0008171F0008171F0008171F000854
:10209400171F0008171F0008171F0008171F000844
:1020A400171F0008AF1F0008BB1F0008012395E796
:1020B400022393E7032391E704238FE7114A13686C
:1020C40023EA0E03136098E70E4A536823EA0E03CB
:1020D40053609BE70B4A936823EA0E0393609EE7E1
:1020E400084AD36823EA0E03D360A1E702B070BDA7
:1020F40000002210000031100010024000000140D6
:1021040000080140000401400AB10161704709045C
:102114000161704700283AD010B4024600681D4B94
:10212400984229D81C4B03441C49A1FB03131B09E7
:102134009B0013641A4BD363022382F82130016895
:1021440021F47F5121F03001536894682343D4680B
:102154002343146923435469234394692343D4696F
:1021640023430B43036000209063012382F8213052
:1021740082F8200010BC70470A4B03440749A1FBB6
:1021840003131B099B001364074BD363D4E701209B
:10219400704700BF07040240F8FFFDBFCDCCCCCC94
:1021A40000000240F8FBFDBF0004024090F821301B
:1021B400022B06D004238363002380F820300120FF
:1021C40070470268136823F00E03136002681368F3
:1021D40023F001031360036CC16B012202FA03F3C1
:1021E4004B6080F82120002380F820301846704787
:1021F40008B590F82130022B03D004238363012017
:1022040008BD0268136823F00E03136002681368A4
:1022140023F00103136003684B4A93424ED9783A82
:10222400934224D01432934230D0143293422FD0AC
:10223400143293422FD0143293422FD0143293424B
:102244002FD0143293422FD002F5627293422ED0D3
:10225400143293422DD0143293422CD01432934230
:1022640002D04FF4803203E04FF4805200E00122A8
:10227400364B5A60012380F82130002380F8203047
:10228400436B002B5ED098470020B9E71022EFE79C
:102294004FF48072ECE74FF48052E9E74FF4803258
:1022A400E6E74FF48012E3E74FF08072E0E70122A3
:1022B400DEE71022DCE74FF48072D9E7244A934228
:1022C40024D01432934225D01432934224D01432B1
:1022D400934224D01432934224D01432934224D013
:1022E4001432934224D002F56272934223D0143202
:1022F400934222D01432934221D01432934202D01A
:102304004FF4803203E04FF4805200E00122114B7D
:102314005A60AFE71022FAE74FF48072F7E74FF400
:102324008052F4E74FF48032F1E74FF48012EEE785
:102334004FF08072EBE70122E9E71022E7E74FF460
:102344008072E4E700205BE7800002400004024062
:10235400080002400000024038B5C36B1A680468E4
:102364002568016C04238B40134200F09B8015F018
:10237400040F00F09780236813F0200F03D1236823
:1023840023F00403236003689A4A934246D9783AB7
:10239400934224D01432934228D01432934227D04B
:1023A4001432934227D01432934227D014329342EA
:1023B40027D01432934227D002F56272934226D07A
:1023C4001432934225D01432934224D014329342CF
:1023D40002D04FF4802203E04FF4804200E0042254
:1023E400854B5A60C36A03B1984738BD4022F7E76A
:1023F4004FF48062F4E74FF48042F1E74FF4802217
:10240400EEE74FF48002EBE74FF08062E8E7042246
:10241400E6E74022E4E74FF48062E1E7774A93423B
:1024240024D01432934225D01432934224D014324F
:10243400934224D01432934224D01432934224D0B1
:102444001432934224D002F56272934223D01432A0
:10245400934222D01432934221D01432934202D0B8
:102464004FF4802203E04FF4804200E00422644BE6
:102474005A60B7E74022FAE74FF48062F7E74FF477
:102484008042F4E74FF48022F1E74FF48002EEE754
:102494004FF08062EBE70422E9E74022E7E74FF4DC
:1024A4008062E4E702238B40134200F0AB8015F016
:1024B400020F00F0A780236813F0200F06D12368D1
:1024C40023F00A032360012380F821300368494A7A
:1024D40093424BD9783A934224D0143293422DD06C
:1024E400143293422CD0143293422CD0143293429F
:1024F4002CD0143293422CD0143293422CD002F5B7
:10250400627293422BD0143293422AD014329342F3
:1025140029D01432934202D04FF4003203E04FF436
:10252400005200E00222344B5A60002380F820302D
:10253400836A002B3FF459AF984756E72022F2E70D
:102544004FF40072EFE74FF40052ECE74FF400321F
:10255400E9E74FF40012E6E74FF00072E3E70222E6
:10256400E1E72022DFE74FF40072DCE7234A9342DD
:1025740024D01432934225D01432934224D01432FE
:10258400934224D01432934224D01432934224D060
:102594001432934224D002F56272934223D014324F
:1025A400934222D01432934221D01432934202D067
:1025B4004FF4003203E04FF4005200E00222104BCB
:1025C4005A60B2E72022FAE74FF40072F7E74FF4BB
:1025D4000052F4E74FF40032F1E74FF40012EEE753
:1025E4004FF00072EBE70222E9E72022E7E74FF41D
:1025F4000072E4E780000240000402400800024048
:1026040000000240082303FA01F111423FF4EDAE49
:1026140015F0080F3FF4E9AE236823F00E0323609E
:10262400026CC16B012303FA02F24A60836380F8EF
:102634002130002380F82030036B002B3FF4D5AE0B
:102644009847D2E6074AD36823F4E0631B041B0CC3
:10265400000200F4E060034343F0BF6343F400333B
:10266400D360704700ED00E000B5194BDB68C3F39D
:102674000223C3F1070CBCF1040F28BF4FF0040C74
:1026840003F1040EBEF1060F18D9033B4FF0FF3ED1
:102694000EFA0CFC21EA0C0199400EFA03F322EA2B
:1026A4000303194300280BDB0901C9B200F16040A0
:1026B40000F5614080F800135DF804FB0023E5E7B2
:1026C40000F00F000901C9B2024B1954F4E700BF2E
:1026D40000ED00E014ED00E0002807DB00F01F022D
:1026E400400901239340024A42F82030704700BF5A
:1026F40000E100E00138B0F1807F0BD24FF0E0231D
:102704005861054AF02182F82310002098610722BD
:102714001A6170470120704700ED00E00268D36839
:1027240023F49073D3600268536923F00103536167
:10273400036B012B05D0202380F83E300023036374
:1027440070470268D36823F01003D360F3E790F86E
:102754003D30DBB2212B01D0022070478368B3F5F2
:10276400805F17D0036A5A1C02621A7803685A60A1
:10277400C38C9BB2013B9BB2C3844BB90268D36840
:1027840023F08003D3600268D36843F04003D3602E
:10279400002070470369002BE4D1036A1B88026898
:1027A400C3F308035360036A02330362E0E70000E3
:1027B40010B504460268136923F44053C1680B43FF
:1027C400136183680269134342691A430168CB6841
:1027D40023F4B05323F00C031343CB600268536912
:1027E40023F4407381690B4353610268134B9A428B
:1027F40020D0FFF749FB024602EB820202EB820281
:1028040063689B00B2FBF3F20D48A0FB0231490957
:10281400642303FB11231B013233A0FB03235B0955
:1028240003F0F00202EB011203F00F0321681344DA
:102834008B6010BDFFF738FB0246DDE7003801402E
:102844001F85EB512DE9F84305460F461646994678
:10285400DDF820802C68246837EA04030CBF4FF0AD
:10286400010C4FF0000CB4451FD1B8F1FF3FF1D07B
:10287400B8F1000F05D0FEF7EFFFA0EB09004045CB
:10288400E8D92A68D36823F4D073D3602A685369DB
:1028940023F001035361202385F83D3085F83E3051
:1028A400002385F83C30032000E00020BDE8F883D5
:1028B40058B310B5044690F83D300BB3242384F884
:1028C4003D302268D36823F40053D3602046FFF7D9
:1028D4006FFF2268136923F49043136122685369DC
:1028E40023F02A0353612268D36843F40053D3606E
:1028F40000202064202384F83D3084F83E3010BD4D
:1029040080F83C30FEF7F2F8D8E7012070472DE953
:10291400F04182B01E4690F83D30DBB2202B54D1FA
:1029240004460D469046002953D0002A53D090F80F
:102934003C30012B51D0012380F83C300023036448
:10294400212380F83D30FEF787FF0746A4F8248052
:10295400A4F82680A368B3F5805F05D04FF0000883
:10296400002384F83C3012E0236913B14FF00008CF
:10297400F6E7A8460025F3E738F8023B2268C3F3DC
:1029840008035360E28C92B2013A92B2E284E38C7F
:102994009BB273B100963B46002280212046FFF78C
:1029A40051FFE0B9002DE7D015F8012B23685A60D8
:1029B400E8E700963B46002240212046FFF742FF0D
:1029C40078B9202384F83D3000E0022002B0BDE84D
:1029D400F0810120FAE70120F8E70220F6E703205E
:1029E400F4E70320F2E7704708B50168CA6822F0EB
:1029F4004002CA60202280F83D20FFF7F4FF002047
:102A040008BD7047704708B5406A0023C385C38476
:102A1400FFF7F8FF08BD704790F83E30DBB2222B79
:102A240060D18368B3F5805F46D0826AB3F5805F76
:102A340004D0002B4DD10369002B4AD103685B6895
:102A44001370836A01338362C38D9BB2013B9BB2D3
:102A5400C385002B48D100B583B00268D36823F046
:102A64002003D3600268D36823F48073D3600268C0
:102A7400536923F001035361202380F83E30036B34
:102A8400012B2CD1002303630268D36823F01003C5
:102A9400D36003681A6812F0100F06D00022019266
:102AA4001A6801925B680193019B818DFFF7B3FF64
:102AB400002003B05DF804FB0269002AB5D1826AE4
:102AC40003685B68C3F308031380836A0233836279
:102AD400BAE703685B6803F07F031370B1E7FFF79D
:102AE40090FFE5E7022070470020704730B583B0BF
:102AF400044602681368D068516913F00F0505D1C4
:102B040013F0200F02D010F0200F19D12DB111F0C5
:102B1400010119D110F4907F16D1216B012975D0D0
:102B240013F0800F03D010F0800F40F0D78013F023
:102B3400400F03D010F0400F40F0D48003B030BDFC
:102B44002046FFF769FFF9E713F0010F06D010F4F0
:102B5400807F03D0226C42F00102226413F0040F40
:102B640004D019B1226C42F00202226413F0020F65
:102B740004D019B1226C42F00402226413F0080F4D
:102B840007D010F0200F00D119B1226C42F00802D6
:102B94002264226C002AD1D013F0200F02D010F04E
:102BA400200F21D123685B6903F04003226C12F0EB
:102BB400080F00D123B32046FFF7B0FD23685A69FC
:102BC40012F0400F18D05A6922F040025A61A36BE8
:102BD40073B1464A5A63A06BFFF70AFB0028ADD0D5
:102BE400A06B436B9847A9E72046FFF715FFD9E789
:102BF4002046FFF707FFA1E72046FFF703FF9DE705
:102C04002046FFF7FFFE0023236497E713F0100F1D
:102C140086D010F0100F83D0002301931368019322
:102C240053680193019B536913F0400F32D0A16B99
:102C34000B685B689BB2002B80D0A08D98427FF616
:102C44007DAFE3858B69202B08D1A18DE38D9BB2E9
:102C5400C91A89B22046FFF7DEFE6FE7D36823F472
:102C64008073D3602268536923F00103536122689F
:102C7400536923F040035361202384F83E3000233A
:102C840023632268D36823F01003D360A06BFFF79B
:102C94008DFADAE7A18DE38D9BB2C91A89B2E38D6F
:102CA4009BB2002B3FF44AAF00293FF447AFD368EF
:102CB40023F49073D3602268536923F001035361B2
:102CC400202384F83E30002323632268D36823F052
:102CD4001003D3602046FFF79EFE2FE72046FFF740
:102CE40036FD2BE72046FFF77FFE27E70B2A000877
:102CF400704700000C480D490D4A002302E0D458E7
:102D0400C4500433C4188C42F9D30A4A0A4C002331
:102D140001E013600432A242FBD3FFF7E9FF00F0A5
:102D24000FF8FDF767FB70470000002070000020DB
:102D34003C3700087000002000030020FEE700007C
:102D440070B500260C4D0D4C641BA410A64209D18D
:102D540000F0AAFC00260A4D0A4C641BA410A642EB
:102D640005D170BD55F8043B98470136EEE755F898
:102D7400043B98470136F2E734370008343700083B
:102D8400343700083837000803460244934200D120
:102D9400704703F8011BF9E700B59BB0009104915B
:102DA4006FF000410591029105490391694600F0D5
:102DB4006FF80022009B1A701BB05DF804FB00BF83
:102DC4000802FFFF13460A46014602480068FFF75F
:102DD400E3BF00BF0C0000202DE9F0478E68824657
:102DE4009E420C4690461F4638D88A8912F4906F4A
:102DF40032D0256809690133A5EB010965694B44A3
:102E040005EB450505EBD5756D109D4238BF1D4694
:102E1400530531D5294600F06FFB064650B90C2303
:102E24004FF0FF30CAF80030A38943F04003A38178
:102E3400BDE8F0874A46216900F0CEFAA38923F45D
:102E4400906343F08003A38126614E4426603E468E
:102E54006561A5EB0905A560BE4200D93E46324630
:102E64004146206800F0C6FAA36800209B1BA360BB
:102E7400236833442360DBE72A4600F0B1FB0646AF
:102E84000028E1D15046216900F0CEFAC7E70000DE
:102E94002DE9F04F98468B8907461B060D461446CC
:102EA4009DB00ED50B6963B9402100F025FB286065
:102EB400286120B90C233B604FF0FF30D1E0402360
:102EC4006B610023099320238DF8293030234FF0C0
:102ED4000109CDF80C80DFF8A4818DF82A3023464F
:102EE4009A4613F8012B0AB1252AF9D1BAEB040B3F
:102EF4000BD05B46224629463846FFF76DFF01306A
:102F040000F0AA80099A5A4409929AF80030002BDA
:102F140000F0A28000234FF0FF32CDE905230AF12F
:102F2400010A049307938DF853301A9354460522EB
:102F340014F8011B514800F041FA049AD8B9D0069C
:102F440044BF20238DF85330110744BF2B238DF841
:102F540053309AF800302A2B15D0544600204FF0F5
:102F64000A0C079A214611F8013B303B092B4ED934
:102F7400B0B1079214E0A0EB080309FA03F313437A
:102F8400A2460493D2E7039B191D1B680391002BEF
:102F9400BBBF5B4242F0020207930793B8BF04929F
:102FA40023782E2B0CD163782A2B35D1039B023442
:102FB4001A1D1B680392002BB8BF4FF0FF33059313
:102FC400DFF8BCA003225046217800F0F7F940B1A5
:102FD4004023A0EB0A0003FA00F0049B01340343EE
:102FE400049314F8011B062226488DF8281000F0DB
:102FF400E5F9002838D0244B1BBB039B073323F08F
:10300400070308330393099B3344099367E70C468A
:1030140001200CFB0232A5E700234FF00A0C1946ED
:1030240001340593204610F8012B303A092A03D9BC
:10303400002BC5D00591C3E7044601230CFB0121F5
:10304400F0E703AB00932A463846104B04A9AFF3CC
:103054000080421C0646D6D1AB895B063FF52CAFF7
:1030640009981DB0BDE8F08F03AB00932A4638469B
:10307400064B04A900F07CF8EBE700BF003700081A
:10308400063700080A37000800000000DD2D00089C
:103094002DE9F047164699468A680B69074693421C
:1030A400B8BF1346336091F843200C46DDF8208006
:1030B4000AB1013333602368990642BF336802338F
:1030C4003360256815F0060506D104F1190AE36892
:1030D40032689B1AAB4228DC94F84320131E226802
:1030E40018BF012392062DD44946384604F1430201
:1030F400C047013020D02368E56803F00603042BA1
:1031040018BF002532684FF00006A36808BFAD1A47
:10311400226908BF25EAE5759342C4BF9B1AED18DE
:103124001A34B5421AD1002008E001235246494618
:103134003846C047013003D14FF0FF30BDE8F08777
:103144000135C4E73020E11881F843005A1C94F893
:1031540045102244023382F84310C5E70123224676
:1031640049463846C0470130E6D00136D9E7000069
:103174002DE9FF470F7E9146782F80460C469A46EC
:103184000C9D01F1430207D8622F0AD8002F00F0EA
:10319400D980582F00F0A48004F1420584F84270CD
:1031A4003AE0A7F16303152BF6D801A151F823F0F7
:1031B4000D320008213200089D3100089D310008BD
:1031C4009D3100089D310008213200089D3100081E
:1031D4009D3100089D3100089D3100082F330008FF
:1031E40051320008113300089D3100089D31000858
:1031F400513300089D310008513200089D31000808
:103204009D310008193300082B681A1D1B682A60B9
:1032140004F1420584F842300123A4E020682968BF
:10322400060601F104030AD50E682B60002E03DAAA
:103234002D23764284F843300A235E4819E00E6851
:1032440010F0400F2B6018BF36B2EFE72B682068F0
:10325400191D2960010601D51E6802E04606FBD54A
:103264001E886F2F0CBF08230A235248002184F8BC
:1032740043106568002DA8BF2168A560A4BF21F094
:10328400040121600EB9002D4DD01546B6FBF3F1B3
:1032940003FB1167C75D05F8017D3746BB420E4647
:1032A400F4D9082B0BD12368DE0708D5236961689C
:1032B4009942DEBF302305F8013C05F1FF35521B6E
:1032C40022614B4621464046CDF800A003AAFFF7F1
:1032D400DFFE01304CD14FF0FF3004B0BDE8F08781
:1032E400344881F845702968236851F8046B2960D3
:1032F4001D0614D5DF0744BF43F0200323601EB925
:10330400236823F0200323601023AFE7236843F0EE
:10331400200323607823284884F84530E3E75906DE
:1033240048BFB6B2E6E71546BBE72B682668181D0A
:103334006169286035061B6801D5196002E07006D2
:10334400FBD51980002315462361BAE72B680021B9
:103354001A1D2A601D686268284600F02FF808B11B
:10336400401B606063682361002384F84330A8E74E
:103374002A46494640462369D0470130ABD02368EA
:103384009B0713D4E068039B9842B8BF1846A4E790
:103394000123324649464046D04701309BD001358F
:1033A400E36803995B1AAB42F2DCEBE7002504F116
:1033B4001906F5E71137000822370008034610B54F
:1033C400C9B202449342184601D1002003E00478B4
:1033D40001338C42F6D110BD0A44914200F1FF330F
:1033E40000D1704710B511F8014B914203F8014F19
:1033F400F9D110BD884210B501EB020402D9844210
:10340400234607D8431EA14208D011F8012B03F824
:10341400012FF8E7014602448A4200D110BD13F897
:10342400014D02F8014DF7E738B50546002940D0B3
:1034340051F8043C0C1F002BB8BFE41800F010F93D
:103444001C4A136833B9636014602846BDE83840E9
:1034540000F00CB9A34208D9206821188B4201BF9F
:1034640019685B6809182160EDE71A465B680BB1BF
:10347400A342FAD911685018A0420BD12068014424
:10348400501883421160E0D118685B6801441160F0
:103494005360DAE702D90C232B60D6E720682118A1
:1034A4008B4201BF19685B6809182160636054602E
:1034B400CBE738BDEC02002070B50E4E0C463168E7
:1034C400054611B900F0BCF830602146284600F0EA
:1034D400B7F8431C0AD0C41C24F00304A04207D04C
:1034E400211A284600F0ACF8013001D14FF0FF3426
:1034F400204670BDF00200202DE9F041CD1C25F0DE
:10350400030508350C2D38BF0C25002D074601DBBB
:10351400A94205D90C2300263B603046BDE8F08162
:103524002E4E00F09DF833681C4634BB29463846BD
:10353400FFF7C2FF431C04464DD134682646002ED3
:1035440040D123683146384604EB030800F078F88C
:1035540080453AD1216803356D1A25F003050835F5
:103564000C2D38BF0C2538462946FFF7A5FF01303E
:103574002BD023682B4423600EE02268521B1ED4F8
:103584000B2A16D96119A342256018BF59606368D4
:1035940008BF316062514B60384604F10B0600F0FD
:1035A40065F826F00706231DF21AB6D09B1BA3501C
:1035B400B3E76268A3420CBF32605A60ECE723466B
:1035C4006468B2E734467668B9E70C2338463B6052
:1035D40000F04CF8A1E72560DEE700BFEC02002014
:1035E4002DE9F041804614460E4621B91146BDE846
:1035F400F041FFF781BF2AB9FFF716FF2546284699
:10360400BDE8F08100F038F88442074602D8B4EBF4
:10361400500F12D821464046FFF76EFF054600289A
:10362400EDD0BC422246314628BF3A46FFF7D4FECD
:1036340031464046FFF7F8FEE1E73546DFE7000094
:1036440038B50023054D044608462B6000F01EF8EB
:10365400431C02D12B6803B1236038BDF40200205F
:10366400014800F011B800BFF8020020014800F042
:103674000CB800BFF802002051F8043C181F002BBE
:10368400BCBF0B58C018704770477047044A0549BF
:103694001368002B08BF0B46184410601846704787
:1036A400FC02002000030020F8B500BFF8BC08BCF1
:1036B4009E467047F8B500BFF8BC08BC9E467047EC
:1036C4007370656564313A20256C640D0A0000004E
:1036D40002030405060708090A0B0C0D0E0F10104F
:1036E40000000000000000000000000001020304CC
:1036F400060708090000000001020304232D302BF3
:103704002000686C4C0065666745464700303132DE
:103714003334353637383941424344454600303135
:103724003233343536373839616263646566000094
:04373400090200087E
:04373800E50100089F
:10373C0001000000100000000024F4001000002024
:10374C00000000000000000000000000000000006D
:10375C00000000000000000000000000000000005D
:10376C00000000000000000000000000000000004D
:10377C00000000000000000000000000000000003D
:10378C00000000000000000000000000000000002D
:10379C00000000000000000000000000000000001D
:0400000508002CF9CA
:00000001FF
